{
  "_format": "hh-sol-artifact-1",
  "contractName": "CursedWordV1",
  "sourceName": "contracts/CursedWordV1.sol",
  "abi": [
    {
      "inputs": [
        {
          "internalType": "bytes",
          "name": "firstWord",
          "type": "bytes"
        }
      ],
      "stateMutability": "nonpayable",
      "type": "constructor"
    },
    {
      "anonymous": false,
      "inputs": [
        {
          "indexed": false,
          "internalType": "address",
          "name": "guesser",
          "type": "address"
        },
        {
          "indexed": false,
          "internalType": "bytes",
          "name": "wordGuessed",
          "type": "bytes"
        }
      ],
      "name": "GuessReceived",
      "type": "event"
    },
    {
      "anonymous": false,
      "inputs": [
        {
          "indexed": false,
          "internalType": "address",
          "name": "guesser",
          "type": "address"
        },
        {
          "indexed": false,
          "internalType": "bytes",
          "name": "wordGuessed",
          "type": "bytes"
        },
        {
          "indexed": false,
          "internalType": "uint16",
          "name": "result",
          "type": "uint16"
        }
      ],
      "name": "GuessResult",
      "type": "event"
    },
    {
      "inputs": [
        {
          "internalType": "bytes",
          "name": "guess",
          "type": "bytes"
        }
      ],
      "name": "attempt",
      "outputs": [],
      "stateMutability": "payable",
      "type": "function"
    },
    {
      "inputs": [],
      "name": "claim_riches",
      "outputs": [],
      "stateMutability": "payable",
      "type": "function"
    },
    {
      "inputs": [
        {
          "internalType": "uint256",
          "name": "",
          "type": "uint256"
        }
      ],
      "name": "guessList",
      "outputs": [
        {
          "internalType": "address",
          "name": "guesser",
          "type": "address"
        },
        {
          "internalType": "bytes",
          "name": "guess",
          "type": "bytes"
        }
      ],
      "stateMutability": "view",
      "type": "function"
    },
    {
      "inputs": [
        {
          "internalType": "address",
          "name": "guesser",
          "type": "address"
        },
        {
          "internalType": "bytes",
          "name": "wordGuessed",
          "type": "bytes"
        },
        {
          "internalType": "uint16",
          "name": "response",
          "type": "uint16"
        }
      ],
      "name": "respond_to_guess",
      "outputs": [],
      "stateMutability": "nonpayable",
      "type": "function"
    }
  ],
  "bytecode": "0x608060405234801561001057600080fd5b50604051610a95380380610a9583398101604081905261002f91610052565b80516020909101206000556002805460ff60a01b1916600160a01b179055610131565b60006020808385031215610064578182fd5b82516001600160401b038082111561007a578384fd5b818501915085601f83011261008d578384fd5b81518181111561009f5761009f61011b565b604051601f8201601f19908116603f011681019083821181831017156100c7576100c761011b565b8160405282815288868487010111156100de578687fd5b8693505b828410156100ff57848401860151818501870152928501926100e2565b8284111561010f57868684830101525b98975050505050505050565b634e487b7160e01b600052604160045260246000fd5b610955806101406000396000f3fe60806040526004361061003f5760003560e01c80630ff37c8b1461004457806314bb6a611461007b57806393c093851461009d578063a95d7aa6146100a5575b600080fd5b34801561005057600080fd5b5061006461005f366004610776565b6100b8565b6040516100729291906107d9565b60405180910390f35b34801561008757600080fd5b5061009b6100963660046106c8565b61017a565b005b61009b61025f565b61009b6100b336600461073b565b61032e565b600181815481106100c857600080fd5b6000918252602090912060029091020180546001820180546001600160a01b039092169350906100f790610895565b80601f016020809104026020016040519081016040528092919081815260200182805461012390610895565b80156101705780601f1061014557610100808354040283529160200191610170565b820191906000526020600020905b81548152906001019060200180831161015357829003601f168201915b5050505050905082565b6101b36040518060400160405280601381526020017202932b9b837b739b2903932b1b2b4bb32b21d1606d1b8152508261ffff166104ba565b8061ffff16618235141561021f57600280546001600160a01b0319166001600160a01b03851617905560408051808201909152601581527454686520776f72642077617320677565737365642160581b602082015261021190610503565b6002805460ff60a01b191690555b7f1d41071c158afee2fba28e8776e880be68d71dc8f71ce3245cb5ead4634af9e1838383604051610252939291906107fd565b60405180910390a1505050565b6002546001600160a01b031633141561030b5760405160009033904780156108fc029184818181858888f193505050509050806102da5760405162461bcd60e51b81526020600482015260146024820152732330b4b632b2103a379039b2b7321022ba3432b960611b60448201526064015b60405180910390fd5b6103086040518060400160405280600c81526020016b5761732069742073656e743f60a01b81525082610546565b50565b61032c6040518060600160405280603981526020016108e760399139610503565b565b600254600160a01b900460ff1615156001146103a25760405162461bcd60e51b815260206004820152602d60248201527f47616d652068617320656e6465642e2057696e6e65722068617320776f6e2e2060448201526c29ba37b810383630bcb4b7339760991b60648201526084016102d1565b604080518082019091523381526020808201838152600180548082018255600091909152835160029091027fb10e2d527612073b26eecdfd717e6a320cf44b4afac2b0732d9fcbe2b7fa0cf6810180546001600160a01b03939093166001600160a01b0319909316929092178255915180519193610445937fb10e2d527612073b26eecdfd717e6a320cf44b4afac2b0732d9fcbe2b7fa0cf701929101906105a8565b50506040805180820190915260138152720273ab6b132b91037b31023bab2b9b9b2b99d1606d1b602082015260015461047e92506104ba565b7f12c05a0bb943df95c6daf35c18ca9b30c886d30f3001ee970677722c03acd2e733826040516104af9291906107d9565b60405180910390a150565b6104ff82826040516024016104d0929190610873565b60408051601f198184030181529190526020810180516001600160e01b03166309710a9d60e41b179052610587565b5050565b610308816040516024016105179190610835565b60408051601f198184030181529190526020810180516001600160e01b031663104c13eb60e21b179052610587565b6104ff828260405160240161055c92919061084f565b60408051601f198184030181529190526020810180516001600160e01b031663c3b5563560e01b1790525b80516a636f6e736f6c652e6c6f67602083016000808483855afa5050505050565b8280546105b490610895565b90600052602060002090601f0160209004810192826105d6576000855561061c565b82601f106105ef57805160ff191683800117855561061c565b8280016001018555821561061c579182015b8281111561061c578251825591602001919060010190610601565b5061062892915061062c565b5090565b5b80821115610628576000815560010161062d565b600082601f830112610651578081fd5b813567ffffffffffffffff8082111561066c5761066c6108d0565b604051601f8301601f19908116603f01168101908282118183101715610694576106946108d0565b816040528381528660208588010111156106ac578485fd5b8360208701602083013792830160200193909352509392505050565b6000806000606084860312156106dc578283fd5b83356001600160a01b03811681146106f2578384fd5b9250602084013567ffffffffffffffff81111561070d578283fd5b61071986828701610641565b925050604084013561ffff81168114610730578182fd5b809150509250925092565b60006020828403121561074c578081fd5b813567ffffffffffffffff811115610762578182fd5b61076e84828501610641565b949350505050565b600060208284031215610787578081fd5b5035919050565b60008151808452815b818110156107b357602081850181015186830182015201610797565b818111156107c45782602083870101525b50601f01601f19169290920160200192915050565b6001600160a01b038316815260406020820181905260009061076e9083018461078e565b6001600160a01b03841681526060602082018190526000906108219083018561078e565b905061ffff83166040830152949350505050565b602081526000610848602083018461078e565b9392505050565b604081526000610862604083018561078e565b905082151560208301529392505050565b604081526000610886604083018561078e565b90508260208301529392505050565b600181811c908216806108a957607f821691505b602082108114156108ca57634e487b7160e01b600052602260045260246000fd5b50919050565b634e487b7160e01b600052604160045260246000fdfe596f7520617265206e6f74207468652077696e6e657220616e6420796f752063616e6e6f74206861766520616c6c20746865206d6f6e65792ea26469706673582212208a2236283bc07fa5ccb7780c6151032d37ad073b1312d54d26902e2ea8f9923c64736f6c63430008040033",
  "linkReferences": {},
  "deployedLinkReferences": {}
}