{
  "_format": "hh-sol-artifact-1",
  "contractName": "CursedWordV1",
  "sourceName": "contracts/CursedWordV1.sol",
  "abi": [
    {
      "inputs": [
        {
          "internalType": "bytes",
          "name": "firstWord",
          "type": "bytes"
        }
      ],
      "stateMutability": "nonpayable",
      "type": "constructor"
    },
    {
      "anonymous": false,
      "inputs": [
        {
          "indexed": true,
          "internalType": "uint256",
          "name": "wordNumber",
          "type": "uint256"
        },
        {
          "indexed": false,
          "internalType": "uint256",
          "name": "guessNumber",
          "type": "uint256"
        },
        {
          "indexed": false,
          "internalType": "address",
          "name": "guesser",
          "type": "address"
        },
        {
          "indexed": false,
          "internalType": "bytes",
          "name": "wordGuessed",
          "type": "bytes"
        }
      ],
      "name": "GuessReceived",
      "type": "event"
    },
    {
      "anonymous": false,
      "inputs": [
        {
          "indexed": true,
          "internalType": "uint256",
          "name": "wordNumber",
          "type": "uint256"
        },
        {
          "indexed": false,
          "internalType": "uint256",
          "name": "guessNumber",
          "type": "uint256"
        },
        {
          "indexed": false,
          "internalType": "address",
          "name": "guesser",
          "type": "address"
        },
        {
          "indexed": false,
          "internalType": "bytes",
          "name": "wordGuessed",
          "type": "bytes"
        },
        {
          "indexed": false,
          "internalType": "uint16",
          "name": "result",
          "type": "uint16"
        }
      ],
      "name": "GuessResult",
      "type": "event"
    },
    {
      "inputs": [
        {
          "internalType": "bytes",
          "name": "guess",
          "type": "bytes"
        }
      ],
      "name": "attempt",
      "outputs": [],
      "stateMutability": "payable",
      "type": "function"
    },
    {
      "inputs": [],
      "name": "claim_riches",
      "outputs": [],
      "stateMutability": "payable",
      "type": "function"
    },
    {
      "inputs": [
        {
          "internalType": "uint256",
          "name": "guessNumber",
          "type": "uint256"
        },
        {
          "internalType": "address",
          "name": "guesser",
          "type": "address"
        },
        {
          "internalType": "bytes",
          "name": "wordGuessed",
          "type": "bytes"
        },
        {
          "internalType": "uint16",
          "name": "response",
          "type": "uint16"
        }
      ],
      "name": "respond_to_guess",
      "outputs": [],
      "stateMutability": "nonpayable",
      "type": "function"
    }
  ],
  "bytecode": "0x608060405234801561001057600080fd5b5060405161084a38038061084a83398101604081905261002f9161005c565b8051602090910120600090815560035560016002819055805460ff60a01b1916600160a01b17905561013b565b6000602080838503121561006e578182fd5b82516001600160401b0380821115610084578384fd5b818501915085601f830112610097578384fd5b8151818111156100a9576100a9610125565b604051601f8201601f19908116603f011681019083821181831017156100d1576100d1610125565b8160405282815288868487010111156100e8578687fd5b8693505b8284101561010957848401860151818501870152928501926100ec565b8284111561011957868684830101525b98975050505050505050565b634e487b7160e01b600052604160045260246000fd5b6107008061014a6000396000f3fe6080604052600436106100345760003560e01c806393c0938514610039578063a95d7aa614610043578063f690af1d14610056575b600080fd5b610041610076565b005b610041610051366004610484565b610145565b34801561006257600080fd5b506100416100713660046104bf565b61024c565b6001546001600160a01b03163314156101225760405160009033904780156108fc029184818181858888f193505050509050806100f15760405162461bcd60e51b81526020600482015260146024820152732330b4b632b2103a379039b2b7321022ba3432b960611b60448201526064015b60405180910390fd5b61011f6040518060400160405280600c81526020016b5761732069742073656e743f60a01b8152508261030f565b50565b61014360405180606001604052806039815260200161069260399139610358565b565b60018054600160a01b900460ff161515146101b85760405162461bcd60e51b815260206004820152602d60248201527f47616d652068617320656e6465642e2057696e6e65722068617320776f6e2e2060448201526c29ba37b810383630bcb4b7339760991b60648201526084016100e8565b6001600360008282546101cb9190610657565b92505081905550610209604051806040016040528060138152602001720273ab6b132b91037b31023bab2b9b9b2b99d1606d1b81525060035461039b565b6002547f4744ea29987b6be0c31b96517959090e720d8c7f1d1ab17dba04a333df08a6dd6003543384604051610241939291906105e5565b60405180910390a250565b6102856040518060400160405280601381526020017202932b9b837b739b2903932b1b2b4bb32b21d1606d1b8152508261ffff1661039b565b8061ffff1661823514156102c9576102c96040518060400160405280601581526020017454686520776f72642077617320677565737365642160581b815250610358565b6002547f24b390cd829042ea5cd3b2edd4ae9fcbee53358018dfccdaceaa27a9d8d91432858585856040516103019493929190610618565b60405180910390a250505050565b610354828260405160240161032592919061059f565b60408051601f198184030181529190526020810180516001600160e01b031663c3b5563560e01b1790526103dc565b5050565b61011f8160405160240161036c9190610585565b60408051601f198184030181529190526020810180516001600160e01b031663104c13eb60e21b1790526103dc565b61035482826040516024016103b19291906105c3565b60408051601f198184030181529190526020810180516001600160e01b03166309710a9d60e41b1790525b80516a636f6e736f6c652e6c6f67602083016000808483855afa5050505050565b600082601f83011261040d578081fd5b813567ffffffffffffffff808211156104285761042861067b565b604051601f8301601f19908116603f011681019082821181831017156104505761045061067b565b81604052838152866020858801011115610468578485fd5b8360208701602083013792830160200193909352509392505050565b600060208284031215610495578081fd5b813567ffffffffffffffff8111156104ab578182fd5b6104b7848285016103fd565b949350505050565b600080600080608085870312156104d4578283fd5b8435935060208501356001600160a01b03811681146104f1578384fd5b9250604085013567ffffffffffffffff81111561050c578283fd5b610518878288016103fd565b925050606085013561ffff8116811461052f578182fd5b939692955090935050565b60008151808452815b8181101561055f57602081850181015186830182015201610543565b818111156105705782602083870101525b50601f01601f19169290920160200192915050565b602081526000610598602083018461053a565b9392505050565b6040815260006105b2604083018561053a565b905082151560208301529392505050565b6040815260006105d6604083018561053a565b90508260208301529392505050565b8381526001600160a01b038316602082015260606040820181905260009061060f9083018461053a565b95945050505050565b8481526001600160a01b03841660208201526080604082018190526000906106429083018561053a565b905061ffff8316606083015295945050505050565b6000821982111561067657634e487b7160e01b81526011600452602481fd5b500190565b634e487b7160e01b600052604160045260246000fdfe596f7520617265206e6f74207468652077696e6e657220616e6420796f752063616e6e6f74206861766520616c6c20746865206d6f6e65792ea2646970667358221220e8548df5814aa67fb5de4a1e25abebed835094587dd9db0ac3f662c912dd969f64736f6c63430008040033",
  "linkReferences": {},
  "deployedLinkReferences": {}
}