{
  "_format": "hh-sol-artifact-1",
  "contractName": "CursedWordV1",
  "sourceName": "contracts/CursedWordV1.sol",
  "abi": [
    {
      "inputs": [
        {
          "internalType": "bytes",
          "name": "firstWord",
          "type": "bytes"
        }
      ],
      "stateMutability": "nonpayable",
      "type": "constructor"
    },
    {
      "anonymous": false,
      "inputs": [
        {
          "indexed": true,
          "internalType": "uint256",
          "name": "wordNumber",
          "type": "uint256"
        },
        {
          "indexed": false,
          "internalType": "uint256",
          "name": "guessNumber",
          "type": "uint256"
        },
        {
          "indexed": false,
          "internalType": "address",
          "name": "guesser",
          "type": "address"
        },
        {
          "indexed": false,
          "internalType": "bytes",
          "name": "wordGuessed",
          "type": "bytes"
        }
      ],
      "name": "GuessReceived",
      "type": "event"
    },
    {
      "anonymous": false,
      "inputs": [
        {
          "indexed": true,
          "internalType": "uint256",
          "name": "wordNumber",
          "type": "uint256"
        },
        {
          "indexed": false,
          "internalType": "uint256",
          "name": "guessNumber",
          "type": "uint256"
        },
        {
          "indexed": false,
          "internalType": "address",
          "name": "guesser",
          "type": "address"
        },
        {
          "indexed": false,
          "internalType": "bytes",
          "name": "wordGuessed",
          "type": "bytes"
        },
        {
          "indexed": false,
          "internalType": "uint16",
          "name": "result",
          "type": "uint16"
        }
      ],
      "name": "GuessResult",
      "type": "event"
    },
    {
      "inputs": [
        {
          "internalType": "bytes",
          "name": "guess",
          "type": "bytes"
        }
      ],
      "name": "attempt",
      "outputs": [],
      "stateMutability": "payable",
      "type": "function"
    },
    {
      "inputs": [],
      "name": "claim_riches",
      "outputs": [],
      "stateMutability": "payable",
      "type": "function"
    },
    {
      "inputs": [
        {
          "internalType": "uint256",
          "name": "guessNumber",
          "type": "uint256"
        },
        {
          "internalType": "address",
          "name": "guesser",
          "type": "address"
        },
        {
          "internalType": "bytes",
          "name": "wordGuessed",
          "type": "bytes"
        },
        {
          "internalType": "uint16",
          "name": "response",
          "type": "uint16"
        }
      ],
      "name": "respond_to_guess",
      "outputs": [],
      "stateMutability": "nonpayable",
      "type": "function"
    },
    {
      "inputs": [],
      "name": "wordNumber",
      "outputs": [
        {
          "internalType": "uint256",
          "name": "",
          "type": "uint256"
        }
      ],
      "stateMutability": "view",
      "type": "function"
    }
  ],
  "bytecode": "0x608060405234801561001057600080fd5b5060405161087d38038061087d83398101604081905261002f9161005c565b8051602090910120600090815560035560016002819055805460ff60a01b1916600160a01b17905561013b565b6000602080838503121561006e578182fd5b82516001600160401b0380821115610084578384fd5b818501915085601f830112610097578384fd5b8151818111156100a9576100a9610125565b604051601f8201601f19908116603f011681019083821181831017156100d1576100d1610125565b8160405282815288868487010111156100e8578687fd5b8693505b8284101561010957848401860151818501870152928501926100ec565b8284111561011957868684830101525b98975050505050505050565b634e487b7160e01b600052604160045260246000fd5b6107338061014a6000396000f3fe60806040526004361061003f5760003560e01c806393c0938514610044578063a95d7aa61461004e578063d4b6df2b14610061578063f690af1d14610089575b600080fd5b61004c6100a9565b005b61004c61005c3660046104b7565b610178565b34801561006d57600080fd5b5061007760025481565b60405190815260200160405180910390f35b34801561009557600080fd5b5061004c6100a43660046104f2565b61027f565b6001546001600160a01b03163314156101555760405160009033904780156108fc029184818181858888f193505050509050806101245760405162461bcd60e51b81526020600482015260146024820152732330b4b632b2103a379039b2b7321022ba3432b960611b60448201526064015b60405180910390fd5b6101526040518060400160405280600c81526020016b5761732069742073656e743f60a01b81525082610342565b50565b6101766040518060600160405280603981526020016106c56039913961038b565b565b60018054600160a01b900460ff161515146101eb5760405162461bcd60e51b815260206004820152602d60248201527f47616d652068617320656e6465642e2057696e6e65722068617320776f6e2e2060448201526c29ba37b810383630bcb4b7339760991b606482015260840161011b565b6001600360008282546101fe919061068a565b9250508190555061023c604051806040016040528060138152602001720273ab6b132b91037b31023bab2b9b9b2b99d1606d1b8152506003546103ce565b6002547f4744ea29987b6be0c31b96517959090e720d8c7f1d1ab17dba04a333df08a6dd600354338460405161027493929190610618565b60405180910390a250565b6102b86040518060400160405280601381526020017202932b9b837b739b2903932b1b2b4bb32b21d1606d1b8152508261ffff166103ce565b8061ffff1661823514156102fc576102fc6040518060400160405280601581526020017454686520776f72642077617320677565737365642160581b81525061038b565b6002547f24b390cd829042ea5cd3b2edd4ae9fcbee53358018dfccdaceaa27a9d8d9143285858585604051610334949392919061064b565b60405180910390a250505050565b61038782826040516024016103589291906105d2565b60408051601f198184030181529190526020810180516001600160e01b031663c3b5563560e01b17905261040f565b5050565b6101528160405160240161039f91906105b8565b60408051601f198184030181529190526020810180516001600160e01b031663104c13eb60e21b17905261040f565b61038782826040516024016103e49291906105f6565b60408051601f198184030181529190526020810180516001600160e01b03166309710a9d60e41b1790525b80516a636f6e736f6c652e6c6f67602083016000808483855afa5050505050565b600082601f830112610440578081fd5b813567ffffffffffffffff8082111561045b5761045b6106ae565b604051601f8301601f19908116603f01168101908282118183101715610483576104836106ae565b8160405283815286602085880101111561049b578485fd5b8360208701602083013792830160200193909352509392505050565b6000602082840312156104c8578081fd5b813567ffffffffffffffff8111156104de578182fd5b6104ea84828501610430565b949350505050565b60008060008060808587031215610507578283fd5b8435935060208501356001600160a01b0381168114610524578384fd5b9250604085013567ffffffffffffffff81111561053f578283fd5b61054b87828801610430565b925050606085013561ffff81168114610562578182fd5b939692955090935050565b60008151808452815b8181101561059257602081850181015186830182015201610576565b818111156105a35782602083870101525b50601f01601f19169290920160200192915050565b6020815260006105cb602083018461056d565b9392505050565b6040815260006105e5604083018561056d565b905082151560208301529392505050565b604081526000610609604083018561056d565b90508260208301529392505050565b8381526001600160a01b03831660208201526060604082018190526000906106429083018461056d565b95945050505050565b8481526001600160a01b03841660208201526080604082018190526000906106759083018561056d565b905061ffff8316606083015295945050505050565b600082198211156106a957634e487b7160e01b81526011600452602481fd5b500190565b634e487b7160e01b600052604160045260246000fdfe596f7520617265206e6f74207468652077696e6e657220616e6420796f752063616e6e6f74206861766520616c6c20746865206d6f6e65792ea2646970667358221220ce3c46d24b050e270c7b9e5bc5fae5c855ae61961fe625e95ae92d7ae1361aa764736f6c63430008040033",
  "linkReferences": {},
  "deployedLinkReferences": {}
}