{
  "_format": "hh-sol-artifact-1",
  "contractName": "ProtoGuesser",
  "sourceName": "contracts/ProtoGuesser.sol",
  "abi": [
    {
      "inputs": [
        {
          "internalType": "uint256",
          "name": "targetNumber",
          "type": "uint256"
        }
      ],
      "stateMutability": "nonpayable",
      "type": "constructor"
    },
    {
      "anonymous": false,
      "inputs": [
        {
          "indexed": false,
          "internalType": "address",
          "name": "guesser",
          "type": "address"
        },
        {
          "indexed": true,
          "internalType": "uint256",
          "name": "numberGuessed",
          "type": "uint256"
        }
      ],
      "name": "GuessReceived",
      "type": "event"
    },
    {
      "inputs": [
        {
          "internalType": "uint256",
          "name": "guess",
          "type": "uint256"
        }
      ],
      "name": "attempt",
      "outputs": [],
      "stateMutability": "payable",
      "type": "function"
    },
    {
      "inputs": [],
      "name": "claim_riches",
      "outputs": [],
      "stateMutability": "payable",
      "type": "function"
    },
    {
      "inputs": [
        {
          "internalType": "uint256",
          "name": "",
          "type": "uint256"
        }
      ],
      "name": "guessList",
      "outputs": [
        {
          "internalType": "address",
          "name": "guesser",
          "type": "address"
        },
        {
          "internalType": "uint256",
          "name": "guess",
          "type": "uint256"
        }
      ],
      "stateMutability": "view",
      "type": "function"
    }
  ],
  "bytecode": "0x608060405234801561001057600080fd5b506040516105a53803806105a583398101604081905261002f91610037565b60005561004f565b600060208284031215610048578081fd5b5051919050565b6105478061005e6000396000f3fe6080604052600436106100345760003560e01c80630ff37c8b14610039578063877dd1bb1461007c57806393c0938514610091575b600080fd5b34801561004557600080fd5b50610059610054366004610415565b610099565b604080516001600160a01b03909316835260208301919091520160405180910390f35b61008f61008a366004610415565b6100d1565b005b61008f610259565b600181815481106100a957600080fd5b6000918252602090912060029091020180546001909101546001600160a01b03909116915082565b600054811415610130576101196040518060400160405280601781526020017f546865206e756d62657220776173206775657373656421000000000000000000815250610327565b600280546001600160a01b03191633179055610165565b6101656040518060400160405280601481526020017315d493d391c81395535091548811d55154d4d15160621b815250610327565b6040805180820182523381526020808201848152600180548082018255600082905293517fb10e2d527612073b26eecdfd717e6a320cf44b4afac2b0732d9fcbe2b7fa0cf6600290950294850180546001600160a01b0319166001600160a01b0390921691909117905590517fb10e2d527612073b26eecdfd717e6a320cf44b4afac2b0732d9fcbe2b7fa0cf79093019290925582518084019093526009835268023bab2b9b9b2b99d160bd1b9083015254610221919061036a565b60405133815281907f17d1815713768f1afb3a2821172402a4b6c3227dffa15da227264cfac9f9642d9060200160405180910390a250565b6002546001600160a01b03163314156103045760405160009033904780156108fc029184818181858888f193505050509050806102d35760405162461bcd60e51b81526020600482015260146024820152732330b4b632b2103a379039b2b7321022ba3432b960611b604482015260640160405180910390fd5b6103016040518060400160405280600c81526020016b5761732069742073656e743f60a01b815250826103b3565b50565b6103256040518060600160405280603981526020016104d960399139610327565b565b6103018160405160240161033b9190610478565b60408051601f198184030181529190526020810180516001600160e01b031663104c13eb60e21b1790526103f4565b6103af82826040516024016103809291906104b6565b60408051601f198184030181529190526020810180516001600160e01b03166309710a9d60e41b1790526103f4565b5050565b6103af82826040516024016103c9929190610492565b60408051601f198184030181529190526020810180516001600160e01b031663c3b5563560e01b1790525b80516a636f6e736f6c652e6c6f67602083016000808483855afa5050505050565b600060208284031215610426578081fd5b5035919050565b60008151808452815b8181101561045257602081850181015186830182015201610436565b818111156104635782602083870101525b50601f01601f19169290920160200192915050565b60208152600061048b602083018461042d565b9392505050565b6040815260006104a5604083018561042d565b905082151560208301529392505050565b6040815260006104c9604083018561042d565b9050826020830152939250505056fe596f7520617265206e6f74207468652077696e6e657220616e6420796f752063616e6e6f74206861766520616c6c20746865206d6f6e65792ea26469706673582212201d08fb2b5a7369d7692ebde7dc17f834be165ff80c649ceafd4fa503d3c4a33e64736f6c63430008040033",
  "linkReferences": {},
  "deployedLinkReferences": {}
}